{
  "address": "0x4eF31B22a65cDc652EfceA38C1980d206438148d",
  "abi": [
    {
      "anonymous": false,
      "inputs": [
        {
          "indexed": true,
          "internalType": "uint256",
          "name": "date",
          "type": "uint256"
        },
        {
          "indexed": true,
          "internalType": "address",
          "name": "member",
          "type": "address"
        },
        {
          "indexed": true,
          "internalType": "string",
          "name": "status",
          "type": "string"
        }
      ],
      "name": "AttendanceResult",
      "type": "event"
    },
    {
      "inputs": [
        {
          "internalType": "address",
          "name": "",
          "type": "address"
        },
        {
          "internalType": "uint256",
          "name": "",
          "type": "uint256"
        }
      ],
      "name": "attendanceStatus",
      "outputs": [
        {
          "internalType": "string",
          "name": "",
          "type": "string"
        }
      ],
      "stateMutability": "view",
      "type": "function"
    },
    {
      "inputs": [
        {
          "internalType": "address",
          "name": "member",
          "type": "address"
        },
        {
          "internalType": "uint256",
          "name": "date",
          "type": "uint256"
        }
      ],
      "name": "getAttendance",
      "outputs": [
        {
          "internalType": "string",
          "name": "attendance",
          "type": "string"
        }
      ],
      "stateMutability": "view",
      "type": "function"
    },
    {
      "inputs": [
        {
          "internalType": "address",
          "name": "member",
          "type": "address"
        },
        {
          "internalType": "string",
          "name": "state",
          "type": "string"
        },
        {
          "internalType": "uint256",
          "name": "date",
          "type": "uint256"
        }
      ],
      "name": "setAttendance",
      "outputs": [],
      "stateMutability": "nonpayable",
      "type": "function"
    }
  ],
  "transactionHash": "0x16274f6e34bcdc9ed361af1d5214129fab2584680af118c415ce712541b27a7d",
  "args": [],
  "numDeployments": 1,
  "solcInputHash": "a4b46482ce745bba23d72a57e1401a9b",
  "bytecode": "0x608060405234801561001057600080fd5b5061060f806100206000396000f3fe608060405234801561001057600080fd5b50600436106100415760003560e01c806315936df81461004657806340f5d5ba1461005b578063d50b0f2d14610084575b600080fd5b61005961005436600461031c565b610097565b005b61006e6100693660046103e7565b610192565b60405161007b9190610441565b60405180910390f35b61006e6100923660046103e7565b610248565b6001600160a01b038316600090815260208181526040808320848452909152902080546100c390610474565b1590506101165760405162461bcd60e51b815260206004820152601960248201527f537461746520697320616c7265616479207772697474656e2e00000000000000604482015260640160405180910390fd5b6001600160a01b038316600090815260208181526040808320848452909152902061014183826104fd565b508160405161015091906105bd565b604051908190038120906001600160a01b0385169083907f04e33c306766dfb2c6842129e1e498b0080b702d7872c5e8856332b103b4e31b90600090a4505050565b6001600160a01b03821660009081526020818152604080832084845290915290208054606091906101c290610474565b80601f01602080910402602001604051908101604052809291908181526020018280546101ee90610474565b801561023b5780601f106102105761010080835404028352916020019161023b565b820191906000526020600020905b81548152906001019060200180831161021e57829003601f168201915b5050505050905092915050565b60006020818152928152604080822090935290815220805461026990610474565b80601f016020809104026020016040519081016040528092919081815260200182805461029590610474565b80156102e25780601f106102b7576101008083540402835291602001916102e2565b820191906000526020600020905b8154815290600101906020018083116102c557829003601f168201915b505050505081565b80356001600160a01b038116811461030157600080fd5b919050565b634e487b7160e01b600052604160045260246000fd5b60008060006060848603121561033157600080fd5b61033a846102ea565b9250602084013567ffffffffffffffff8082111561035757600080fd5b818601915086601f83011261036b57600080fd5b81358181111561037d5761037d610306565b604051601f8201601f19908116603f011681019083821181831017156103a5576103a5610306565b816040528281528960208487010111156103be57600080fd5b826020860160208301376000602084830101528096505050505050604084013590509250925092565b600080604083850312156103fa57600080fd5b610403836102ea565b946020939093013593505050565b60005b8381101561042c578181015183820152602001610414565b8381111561043b576000848401525b50505050565b6020815260008251806020840152610460816040850160208701610411565b601f01601f19169190910160400192915050565b600181811c9082168061048857607f821691505b6020821081036104a857634e487b7160e01b600052602260045260246000fd5b50919050565b601f8211156104f857600081815260208120601f850160051c810160208610156104d55750805b601f850160051c820191505b818110156104f4578281556001016104e1565b5050505b505050565b815167ffffffffffffffff81111561051757610517610306565b61052b816105258454610474565b846104ae565b602080601f83116001811461056057600084156105485750858301515b600019600386901b1c1916600185901b1785556104f4565b600085815260208120601f198616915b8281101561058f57888601518255948401946001909101908401610570565b50858210156105ad5787850151600019600388901b60f8161c191681555b5050505050600190811b01905550565b600082516105cf818460208701610411565b919091019291505056fea264697066735822122013969aec0e879f0bccf3d432846347d047a1b9b39226563a05b6a3c7131cb67064736f6c634300080f0033",
  "devdoc": {
    "kind": "dev",
    "methods": {},
    "version": 1
  },
  "userdoc": {
    "kind": "user",
    "methods": {},
    "version": 1
  },
  "storageLayout": {
    "storage": [
      {
        "astId": 2924,
        "contract": "src/Attendance.sol:Attendance",
        "label": "attendanceStatus",
        "offset": 0,
        "slot": "0",
        "type": "t_mapping(t_address,t_mapping(t_uint256,t_string_storage))"
      }
    ],
    "types": {
      "t_address": {
        "encoding": "inplace",
        "label": "address",
        "numberOfBytes": "20"
      },
      "t_mapping(t_address,t_mapping(t_uint256,t_string_storage))": {
        "encoding": "mapping",
        "key": "t_address",
        "label": "mapping(address => mapping(uint256 => string))",
        "numberOfBytes": "32",
        "value": "t_mapping(t_uint256,t_string_storage)"
      },
      "t_mapping(t_uint256,t_string_storage)": {
        "encoding": "mapping",
        "key": "t_uint256",
        "label": "mapping(uint256 => string)",
        "numberOfBytes": "32",
        "value": "t_string_storage"
      },
      "t_string_storage": {
        "encoding": "bytes",
        "label": "string",
        "numberOfBytes": "32"
      },
      "t_uint256": {
        "encoding": "inplace",
        "label": "uint256",
        "numberOfBytes": "32"
      }
    }
  }
}