{
  "address": "0x57eB00425AFC0627FB5FAfFb82f4287a46335b0b",
  "abi": [
    {
      "inputs": [
        {
          "internalType": "address",
          "name": "",
          "type": "address"
        },
        {
          "internalType": "uint256",
          "name": "",
          "type": "uint256"
        }
      ],
      "name": "attendanceStatus",
      "outputs": [
        {
          "internalType": "string",
          "name": "",
          "type": "string"
        }
      ],
      "stateMutability": "view",
      "type": "function"
    },
    {
      "inputs": [
        {
          "internalType": "address",
          "name": "member",
          "type": "address"
        },
        {
          "internalType": "uint256",
          "name": "date",
          "type": "uint256"
        }
      ],
      "name": "getAttendance",
      "outputs": [
        {
          "internalType": "string",
          "name": "attendance",
          "type": "string"
        }
      ],
      "stateMutability": "view",
      "type": "function"
    },
    {
      "inputs": [
        {
          "internalType": "address",
          "name": "member",
          "type": "address"
        },
        {
          "internalType": "string",
          "name": "state",
          "type": "string"
        },
        {
          "internalType": "uint256",
          "name": "date",
          "type": "uint256"
        }
      ],
      "name": "setAttendance",
      "outputs": [],
      "stateMutability": "nonpayable",
      "type": "function"
    }
  ],
  "transactionHash": "0x9458150256bf1e0afb75c66246b44a66c67150ca7e6cdca3d0b6fb7a92da314d",
  "args": [],
  "numDeployments": 1,
  "solcInputHash": "f07a694acb2b06fc46811e1d693c3834",
  "bytecode": "0x608060405234801561001057600080fd5b5061059a806100206000396000f3fe608060405234801561001057600080fd5b50600436106100415760003560e01c806315936df81461004657806340f5d5ba1461005b578063d50b0f2d14610084575b600080fd5b6100596100543660046102d1565b610097565b005b61006e61006936600461039c565b610147565b60405161007b91906103c6565b60405180910390f35b61006e61009236600461039c565b6101fd565b6001600160a01b038316600090815260208181526040808320848452909152902080546100c39061041b565b1590506101165760405162461bcd60e51b815260206004820152601960248201527f537461746520697320616c7265616479207772697474656e2e00000000000000604482015260640160405180910390fd5b6001600160a01b038316600090815260208181526040808320848452909152902061014183826104a4565b50505050565b6001600160a01b03821660009081526020818152604080832084845290915290208054606091906101779061041b565b80601f01602080910402602001604051908101604052809291908181526020018280546101a39061041b565b80156101f05780601f106101c5576101008083540402835291602001916101f0565b820191906000526020600020905b8154815290600101906020018083116101d357829003601f168201915b5050505050905092915050565b60006020818152928152604080822090935290815220805461021e9061041b565b80601f016020809104026020016040519081016040528092919081815260200182805461024a9061041b565b80156102975780601f1061026c57610100808354040283529160200191610297565b820191906000526020600020905b81548152906001019060200180831161027a57829003601f168201915b505050505081565b80356001600160a01b03811681146102b657600080fd5b919050565b634e487b7160e01b600052604160045260246000fd5b6000806000606084860312156102e657600080fd5b6102ef8461029f565b9250602084013567ffffffffffffffff8082111561030c57600080fd5b818601915086601f83011261032057600080fd5b813581811115610332576103326102bb565b604051601f8201601f19908116603f0116810190838211818310171561035a5761035a6102bb565b8160405282815289602084870101111561037357600080fd5b826020860160208301376000602084830101528096505050505050604084013590509250925092565b600080604083850312156103af57600080fd5b6103b88361029f565b946020939093013593505050565b600060208083528351808285015260005b818110156103f3578581018301518582016040015282016103d7565b81811115610405576000604083870101525b50601f01601f1916929092016040019392505050565b600181811c9082168061042f57607f821691505b60208210810361044f57634e487b7160e01b600052602260045260246000fd5b50919050565b601f82111561049f57600081815260208120601f850160051c8101602086101561047c5750805b601f850160051c820191505b8181101561049b57828155600101610488565b5050505b505050565b815167ffffffffffffffff8111156104be576104be6102bb565b6104d2816104cc845461041b565b84610455565b602080601f83116001811461050757600084156104ef5750858301515b600019600386901b1c1916600185901b17855561049b565b600085815260208120601f198616915b8281101561053657888601518255948401946001909101908401610517565b50858210156105545787850151600019600388901b60f8161c191681555b5050505050600190811b0190555056fea2646970667358221220dd9dff4800f3a9c96359289745650b1d44074d3dae69dded89a07b2066b402f064736f6c634300080f0033",
  "devdoc": {
    "kind": "dev",
    "methods": {},
    "version": 1
  },
  "userdoc": {
    "kind": "user",
    "methods": {},
    "version": 1
  },
  "storageLayout": {
    "storage": [
      {
        "astId": 2916,
        "contract": "src/Attendance.sol:Attendance",
        "label": "attendanceStatus",
        "offset": 0,
        "slot": "0",
        "type": "t_mapping(t_address,t_mapping(t_uint256,t_string_storage))"
      }
    ],
    "types": {
      "t_address": {
        "encoding": "inplace",
        "label": "address",
        "numberOfBytes": "20"
      },
      "t_mapping(t_address,t_mapping(t_uint256,t_string_storage))": {
        "encoding": "mapping",
        "key": "t_address",
        "label": "mapping(address => mapping(uint256 => string))",
        "numberOfBytes": "32",
        "value": "t_mapping(t_uint256,t_string_storage)"
      },
      "t_mapping(t_uint256,t_string_storage)": {
        "encoding": "mapping",
        "key": "t_uint256",
        "label": "mapping(uint256 => string)",
        "numberOfBytes": "32",
        "value": "t_string_storage"
      },
      "t_string_storage": {
        "encoding": "bytes",
        "label": "string",
        "numberOfBytes": "32"
      },
      "t_uint256": {
        "encoding": "inplace",
        "label": "uint256",
        "numberOfBytes": "32"
      }
    }
  }
}