{
  "address": "0x0CF6D3D3FEC650Cf8dABC925f8307ACC997a425C",
  "abi": [
    {
      "anonymous": false,
      "inputs": [
        {
          "indexed": true,
          "internalType": "address",
          "name": "previousOwner",
          "type": "address"
        },
        {
          "indexed": true,
          "internalType": "address",
          "name": "newOwner",
          "type": "address"
        }
      ],
      "name": "OwnershipTransferred",
      "type": "event"
    },
    {
      "inputs": [],
      "name": "getAttendanceAddress",
      "outputs": [
        {
          "internalType": "address",
          "name": "",
          "type": "address"
        }
      ],
      "stateMutability": "nonpayable",
      "type": "function"
    },
    {
      "inputs": [],
      "name": "getBVTokenAddress",
      "outputs": [
        {
          "internalType": "address",
          "name": "",
          "type": "address"
        }
      ],
      "stateMutability": "nonpayable",
      "type": "function"
    },
    {
      "inputs": [
        {
          "internalType": "uint256",
          "name": "date",
          "type": "uint256"
        }
      ],
      "name": "getVoteAddress",
      "outputs": [
        {
          "internalType": "address",
          "name": "voteContractAddress",
          "type": "address"
        }
      ],
      "stateMutability": "nonpayable",
      "type": "function"
    },
    {
      "inputs": [],
      "name": "getVoteFactoryAddress",
      "outputs": [
        {
          "internalType": "address",
          "name": "",
          "type": "address"
        }
      ],
      "stateMutability": "nonpayable",
      "type": "function"
    },
    {
      "inputs": [],
      "name": "owner",
      "outputs": [
        {
          "internalType": "address",
          "name": "",
          "type": "address"
        }
      ],
      "stateMutability": "view",
      "type": "function"
    },
    {
      "inputs": [],
      "name": "renounceOwnership",
      "outputs": [],
      "stateMutability": "nonpayable",
      "type": "function"
    },
    {
      "inputs": [
        {
          "internalType": "address",
          "name": "attendanceAddress",
          "type": "address"
        }
      ],
      "name": "setAttendanceAddress",
      "outputs": [],
      "stateMutability": "nonpayable",
      "type": "function"
    },
    {
      "inputs": [
        {
          "internalType": "address",
          "name": "bvTokenAddress",
          "type": "address"
        }
      ],
      "name": "setBVTokenAddress",
      "outputs": [],
      "stateMutability": "nonpayable",
      "type": "function"
    },
    {
      "inputs": [
        {
          "internalType": "address",
          "name": "voteFactoryAddress",
          "type": "address"
        }
      ],
      "name": "setVoteFactoryAddress",
      "outputs": [],
      "stateMutability": "nonpayable",
      "type": "function"
    },
    {
      "inputs": [
        {
          "internalType": "address",
          "name": "newOwner",
          "type": "address"
        }
      ],
      "name": "transferOwnership",
      "outputs": [],
      "stateMutability": "nonpayable",
      "type": "function"
    }
  ],
  "transactionHash": "0x191c2723b4cb2fabbcc9b50a2cc5bc8e8a1075621493f2699cf406be7c93a15d",
  "args": [],
  "numDeployments": 1,
  "solcInputHash": "f07a694acb2b06fc46811e1d693c3834",
  "bytecode": "0x608060405234801561001057600080fd5b5061001a3361001f565b61006f565b600080546001600160a01b038381166001600160a01b0319831681178455604051919092169283917f8be0079c531659141344cd1fd0a4f28419497f9722a3daafe3b4186f6b6457e09190a35050565b61043d8061007e6000396000f3fe608060405234801561001057600080fd5b506004361061009e5760003560e01c80638da5cb5b116100665780638da5cb5b1461010d578063b6da2f821461011e578063c4680f1d14610131578063ca65bd8914610144578063f2fde38b1461015557600080fd5b8063164829ef146100a357806324599417146100b85780633eb905ae146100e15780637028c046146100f2578063715018a614610105575b600080fd5b6100b66100b13660046103ad565b610168565b005b6003546001600160a01b03165b6040516001600160a01b03909116815260200160405180910390f35b6001546001600160a01b03166100c5565b6100b66101003660046103ad565b610192565b6100b66101bc565b6000546001600160a01b03166100c5565b6100b661012c3660046103ad565b6101d0565b6100c561013f3660046103d1565b6101fa565b6002546001600160a01b03166100c5565b6100b66101633660046103ad565b610270565b6101706102ee565b600380546001600160a01b0319166001600160a01b0392909216919091179055565b61019a6102ee565b600280546001600160a01b0319166001600160a01b0392909216919091179055565b6101c46102ee565b6101ce6000610348565b565b6101d86102ee565b600180546001600160a01b0319166001600160a01b0392909216919091179055565b60035460405163c4680f1d60e01b8152600481018390526000916001600160a01b03169063c4680f1d906024016020604051808303816000875af1158015610246573d6000803e3d6000fd5b505050506040513d601f19601f8201168201806040525081019061026a91906103ea565b92915050565b6102786102ee565b6001600160a01b0381166102e25760405162461bcd60e51b815260206004820152602660248201527f4f776e61626c653a206e6577206f776e657220697320746865207a65726f206160448201526564647265737360d01b60648201526084015b60405180910390fd5b6102eb81610348565b50565b6000546001600160a01b031633146101ce5760405162461bcd60e51b815260206004820181905260248201527f4f776e61626c653a2063616c6c6572206973206e6f7420746865206f776e657260448201526064016102d9565b600080546001600160a01b038381166001600160a01b0319831681178455604051919092169283917f8be0079c531659141344cd1fd0a4f28419497f9722a3daafe3b4186f6b6457e09190a35050565b6001600160a01b03811681146102eb57600080fd5b6000602082840312156103bf57600080fd5b81356103ca81610398565b9392505050565b6000602082840312156103e357600080fd5b5035919050565b6000602082840312156103fc57600080fd5b81516103ca8161039856fea264697066735822122089b196757d46c46dcbb9648f045fbb0845c4e3c1f1f1b4b3726105220ae87eff64736f6c634300080f0033",
  "devdoc": {
    "kind": "dev",
    "methods": {
      "owner()": {
        "details": "Returns the address of the current owner."
      },
      "renounceOwnership()": {
        "details": "Leaves the contract without owner. It will not be possible to call `onlyOwner` functions anymore. Can only be called by the current owner. NOTE: Renouncing ownership will leave the contract without an owner, thereby removing any functionality that is only available to the owner."
      },
      "transferOwnership(address)": {
        "details": "Transfers ownership of the contract to a new account (`newOwner`). Can only be called by the current owner."
      }
    },
    "version": 1
  },
  "userdoc": {
    "kind": "user",
    "methods": {},
    "version": 1
  },
  "storageLayout": {
    "storage": [
      {
        "astId": 4464,
        "contract": "src/View.sol:View",
        "label": "_owner",
        "offset": 0,
        "slot": "0",
        "type": "t_address"
      },
      {
        "astId": 3240,
        "contract": "src/View.sol:View",
        "label": "_attendanceAddress",
        "offset": 0,
        "slot": "1",
        "type": "t_address"
      },
      {
        "astId": 3242,
        "contract": "src/View.sol:View",
        "label": "_bvTokenAddress",
        "offset": 0,
        "slot": "2",
        "type": "t_address"
      },
      {
        "astId": 3244,
        "contract": "src/View.sol:View",
        "label": "_voteFactoryAddress",
        "offset": 0,
        "slot": "3",
        "type": "t_address"
      }
    ],
    "types": {
      "t_address": {
        "encoding": "inplace",
        "label": "address",
        "numberOfBytes": "20"
      }
    }
  }
}