{
  "address": "0x30e12a2f8C933ba13482BaB0B795524c48E3Aef8",
  "abi": [
    {
      "anonymous": false,
      "inputs": [
        {
          "indexed": true,
          "internalType": "address",
          "name": "previousOwner",
          "type": "address"
        },
        {
          "indexed": true,
          "internalType": "address",
          "name": "newOwner",
          "type": "address"
        }
      ],
      "name": "OwnershipTransferred",
      "type": "event"
    },
    {
      "inputs": [
        {
          "internalType": "uint256",
          "name": "date",
          "type": "uint256"
        }
      ],
      "name": "getVoteAddress",
      "outputs": [
        {
          "internalType": "address",
          "name": "voteContractAddress",
          "type": "address"
        }
      ],
      "stateMutability": "nonpayable",
      "type": "function"
    },
    {
      "inputs": [],
      "name": "getVoteFactoryAddress",
      "outputs": [
        {
          "internalType": "address",
          "name": "",
          "type": "address"
        }
      ],
      "stateMutability": "nonpayable",
      "type": "function"
    },
    {
      "inputs": [],
      "name": "owner",
      "outputs": [
        {
          "internalType": "address",
          "name": "",
          "type": "address"
        }
      ],
      "stateMutability": "view",
      "type": "function"
    },
    {
      "inputs": [],
      "name": "renounceOwnership",
      "outputs": [],
      "stateMutability": "nonpayable",
      "type": "function"
    },
    {
      "inputs": [
        {
          "internalType": "address",
          "name": "voteFactoryAddress",
          "type": "address"
        }
      ],
      "name": "setVoteFactoryAddress",
      "outputs": [],
      "stateMutability": "nonpayable",
      "type": "function"
    },
    {
      "inputs": [
        {
          "internalType": "address",
          "name": "newOwner",
          "type": "address"
        }
      ],
      "name": "transferOwnership",
      "outputs": [],
      "stateMutability": "nonpayable",
      "type": "function"
    }
  ],
  "transactionHash": "0xb1c57624675cfc688c910ad74a727c10ab8ed8f641134364be9b5cd66ae12fc8",
  "args": [],
  "numDeployments": 1,
  "solcInputHash": "a1d2baa1cd3f0deda43e6d14702f5e3e",
  "bytecode": "0x608060405234801561001057600080fd5b5061001a3361001f565b61006f565b600080546001600160a01b038381166001600160a01b0319831681178455604051919092169283917f8be0079c531659141344cd1fd0a4f28419497f9722a3daafe3b4186f6b6457e09190a35050565b6103658061007e6000396000f3fe608060405234801561001057600080fd5b50600436106100625760003560e01c8063164829ef14610067578063245994171461007c578063715018a6146100a55780638da5cb5b146100ad578063c4680f1d146100be578063f2fde38b146100d1575b600080fd5b61007a6100753660046102d5565b6100e4565b005b6001546001600160a01b03165b6040516001600160a01b03909116815260200160405180910390f35b61007a61010e565b6000546001600160a01b0316610089565b6100896100cc3660046102f9565b610122565b61007a6100df3660046102d5565b610198565b6100ec610216565b600180546001600160a01b0319166001600160a01b0392909216919091179055565b610116610216565b6101206000610270565b565b60015460405163c4680f1d60e01b8152600481018390526000916001600160a01b03169063c4680f1d906024016020604051808303816000875af115801561016e573d6000803e3d6000fd5b505050506040513d601f19601f820116820180604052508101906101929190610312565b92915050565b6101a0610216565b6001600160a01b03811661020a5760405162461bcd60e51b815260206004820152602660248201527f4f776e61626c653a206e6577206f776e657220697320746865207a65726f206160448201526564647265737360d01b60648201526084015b60405180910390fd5b61021381610270565b50565b6000546001600160a01b031633146101205760405162461bcd60e51b815260206004820181905260248201527f4f776e61626c653a2063616c6c6572206973206e6f7420746865206f776e65726044820152606401610201565b600080546001600160a01b038381166001600160a01b0319831681178455604051919092169283917f8be0079c531659141344cd1fd0a4f28419497f9722a3daafe3b4186f6b6457e09190a35050565b6001600160a01b038116811461021357600080fd5b6000602082840312156102e757600080fd5b81356102f2816102c0565b9392505050565b60006020828403121561030b57600080fd5b5035919050565b60006020828403121561032457600080fd5b81516102f2816102c056fea26469706673582212204d7604ca236918c9a893c8e9015fb329405b6bcfdbc343202b711cd80d9d4c7364736f6c634300080f0033",
  "devdoc": {
    "kind": "dev",
    "methods": {
      "owner()": {
        "details": "Returns the address of the current owner."
      },
      "renounceOwnership()": {
        "details": "Leaves the contract without owner. It will not be possible to call `onlyOwner` functions anymore. Can only be called by the current owner. NOTE: Renouncing ownership will leave the contract without an owner, thereby removing any functionality that is only available to the owner."
      },
      "transferOwnership(address)": {
        "details": "Transfers ownership of the contract to a new account (`newOwner`). Can only be called by the current owner."
      }
    },
    "version": 1
  },
  "userdoc": {
    "kind": "user",
    "methods": {},
    "version": 1
  },
  "storageLayout": {
    "storage": [
      {
        "astId": 1167,
        "contract": "src/View.sol:View",
        "label": "_owner",
        "offset": 0,
        "slot": "0",
        "type": "t_address"
      },
      {
        "astId": 16,
        "contract": "src/View.sol:View",
        "label": "_voteFactoryAddress",
        "offset": 0,
        "slot": "1",
        "type": "t_address"
      }
    ],
    "types": {
      "t_address": {
        "encoding": "inplace",
        "label": "address",
        "numberOfBytes": "20"
      }
    }
  }
}