{
  "address": "0x934067AB8cF0FB1434AD35AE7c9A825390A6C308",
  "abi": [
    {
      "inputs": [
        {
          "internalType": "address",
          "name": "viewAddr_",
          "type": "address"
        }
      ],
      "stateMutability": "nonpayable",
      "type": "constructor"
    },
    {
      "inputs": [],
      "name": "admin",
      "outputs": [
        {
          "internalType": "address",
          "name": "",
          "type": "address"
        }
      ],
      "stateMutability": "view",
      "type": "function"
    },
    {
      "inputs": [
        {
          "internalType": "uint256",
          "name": "totalAudience",
          "type": "uint256"
        },
        {
          "internalType": "uint256",
          "name": "rewardPresenter",
          "type": "uint256"
        },
        {
          "internalType": "uint256",
          "name": "rewardAudience",
          "type": "uint256"
        },
        {
          "internalType": "address[]",
          "name": "memberList",
          "type": "address[]"
        },
        {
          "internalType": "address",
          "name": "presenter",
          "type": "address"
        },
        {
          "internalType": "uint256",
          "name": "date",
          "type": "uint256"
        }
      ],
      "name": "createVote",
      "outputs": [],
      "stateMutability": "nonpayable",
      "type": "function"
    },
    {
      "inputs": [
        {
          "internalType": "uint256",
          "name": "",
          "type": "uint256"
        }
      ],
      "name": "getVote",
      "outputs": [
        {
          "internalType": "address",
          "name": "",
          "type": "address"
        }
      ],
      "stateMutability": "view",
      "type": "function"
    },
    {
      "inputs": [
        {
          "internalType": "uint256",
          "name": "date",
          "type": "uint256"
        }
      ],
      "name": "getVoteAddress",
      "outputs": [
        {
          "internalType": "address",
          "name": "",
          "type": "address"
        }
      ],
      "stateMutability": "nonpayable",
      "type": "function"
    },
    {
      "inputs": [
        {
          "internalType": "address",
          "name": "",
          "type": "address"
        }
      ],
      "name": "isVote",
      "outputs": [
        {
          "internalType": "bool",
          "name": "",
          "type": "bool"
        }
      ],
      "stateMutability": "view",
      "type": "function"
    },
    {
      "inputs": [
        {
          "internalType": "address",
          "name": "newViewAddr",
          "type": "address"
        }
      ],
      "name": "setViewAddr",
      "outputs": [],
      "stateMutability": "nonpayable",
      "type": "function"
    }
  ],
  "transactionHash": "0xb7e229ccf79e8661015a7e167403b06ad1aa428e1ec2eefd575cb8bc779a1009",
  "args": [
    "0x0CF6D3D3FEC650Cf8dABC925f8307ACC997a425C"
  ],
  "numDeployments": 1,
  "solcInputHash": "f07a694acb2b06fc46811e1d693c3834",
  "bytecode": "0x608060405234801561001057600080fd5b50604051610f8e380380610f8e83398101604081905261002f91610062565b60038054336001600160a01b031991821617909155600080549091166001600160a01b0392909216919091179055610092565b60006020828403121561007457600080fd5b81516001600160a01b038116811461008b57600080fd5b9392505050565b610eed806100a16000396000f3fe608060405234801561001057600080fd5b50600436106100625760003560e01c806329e19468146100675780635a55c1f01461009f5780638d535cd5146100e0578063c4680f1d146100f5578063ea965b891461011e578063f851a44014610131575b600080fd5b61008a6100753660046102f1565b60026020526000908152604090205460ff1681565b60405190151581526020015b60405180910390f35b6100c86100ad366004610313565b6001602052600090815260409020546001600160a01b031681565b6040516001600160a01b039091168152602001610096565b6100f36100ee3660046102f1565b610144565b005b6100c8610103366004610313565b6000908152600160205260409020546001600160a01b031690565b6100f361012c366004610342565b6101b4565b6003546100c8906001600160a01b031681565b6003546001600160a01b031633146101925760405162461bcd60e51b815260206004820152600d60248201526c1050d0d154d4d7d11153925151609a1b604482015260640160405180910390fd5b600080546001600160a01b0319166001600160a01b0392909216919091179055565b600080604051806020016101c7906102c8565b601f1982820381018352601f9091011660408181526020820186905291925060009101604051602081830303815290604052805190602001209050808251602084016000f560005460405163907cc7b160e01b81529194506001600160a01b038086169263907cc7b1926102499216908d908d908d908d908d9060040161043f565b600060405180830381600087803b15801561026357600080fd5b505af1158015610277573d6000803e3d6000fd5b5050506000948552505060016020818152604080862080546001600160a01b039096166001600160a01b0319909616861790559385526002905291909220805460ff19169091179055505050505050565b6109fe806104ba83390190565b80356001600160a01b03811681146102ec57600080fd5b919050565b60006020828403121561030357600080fd5b61030c826102d5565b9392505050565b60006020828403121561032557600080fd5b5035919050565b634e487b7160e01b600052604160045260246000fd5b60008060008060008060c0878903121561035b57600080fd5b86359550602080880135955060408801359450606088013567ffffffffffffffff8082111561038957600080fd5b818a0191508a601f83011261039d57600080fd5b8135818111156103af576103af61032c565b8060051b604051601f19603f830116810181811085821117156103d4576103d461032c565b60405291825284820192508381018501918d8311156103f257600080fd5b938501935b8285101561041757610408856102d5565b845293850193928501926103f7565b80985050505050505061042c608088016102d5565b915060a087013590509295509295509295565b600060c0820160018060a01b03808a1684526020898186015288604086015287606086015260c0608086015282875180855260e087019150828901945060005b8181101561049d57855185168352948301949183019160010161047f565b5050809450505080851660a0850152505097965050505050505056fe60806040526009805460ff1916905534801561001a57600080fd5b506109d48061002a6000396000f3fe608060405234801561001057600080fd5b50600436106100365760003560e01c8063907cc7b11461003b578063df4985fa14610050575b600080fd5b61004e6100493660046107d9565b610058565b005b61004e610232565b60095460ff16156100b05760405162461bcd60e51b815260206004820152601c60248201527f43616e20626520496e697469616c697a6564206f6e6c79206f6e63650000000060448201526064015b60405180910390fd5b61010960408051610120810190915280600081526020016000815260200160008152602001600081526020016000815260200160008152602001600081526020016060815260200160006001600160a01b031681525090565b60098054610100600160a81b0319166101006001600160a01b038a1602179055600081819052506020810186905260a0810185905260c0810184905260e081018390526001600160a01b038216610100820152426060820181905261017090612a3061090b565b6080820152805160008054839290829060ff19166001836002811115610198576101986108df565b0217905550602082810151600183015560408301516002830155606083015160038301556080830151600483015560a0830151600583015560c0830151600683015560e083015180516101f19260078501920190610721565b506101009190910151600890910180546001600160a01b0319166001600160a01b0390921691909117905550506009805460ff191660011790555050505050565b604080516101208101909152600080549091908290829060ff16600281111561025d5761025d6108df565b600281111561026e5761026e6108df565b81526020016001820154815260200160028201548152602001600382015481526020016004820154815260200160058201548152602001600682015481526020016007820180548060200260200160405190810160405280929190818152602001828054801561030757602002820191906000526020600020905b81546001600160a01b031681526001909101906020018083116102e9575b5050509183525050600891909101546001600160a01b031660209091015260e0810151519091506000805b8281101561038b57336001600160a01b03168460e00151828151811061035a5761035a610923565b60200260200101516001600160a01b031603610379576001915061038b565b61038460018261090b565b9050610332565b5080151560000361041257604051600081527f3b0a8ddef325df2bfdfa6b430ae4c8421841cd135bfa8fb5e432f200787520bb9060200160405180910390a160405162461bcd60e51b815260206004820152601b60248201527f6d73672e73656e646572206d7573742062652061756469656e6365000000000060448201526064016100a7565b8260800151421061044f576003836020015160026104309190610939565b61043a9190610958565b8360400151101561044a57600283525b610675565b604083015161045f90600161090b565b60408085019190915251600181527f3b0a8ddef325df2bfdfa6b430ae4c8421841cd135bfa8fb5e432f200787520bb9060200160405180910390a16000600960019054906101000a90046001600160a01b03166001600160a01b031663ca65bd896040518163ffffffff1660e01b81526004016020604051808303816000875af11580156104f1573d6000803e3d6000fd5b505050506040513d601f19601f82011682018060405250810190610515919061097a565b60c085015160405163ce8ae9f360e01b815233600482015260248101919091529091506001600160a01b0382169063ce8ae9f390604401600060405180830381600087803b15801561056657600080fd5b505af115801561057a573d6000803e3d6000fd5b505050506003846020015160026105919190610939565b61059b9190610958565b8460400151106106465761010084015160a085015160405163ce8ae9f360e01b81526001600160a01b0384169263ce8ae9f3926105ee926004016001600160a01b03929092168252602082015260400190565b600060405180830381600087803b15801561060857600080fd5b505af115801561061c573d6000803e3d6000fd5b508692506001915061062b9050565b9081600281111561063e5761063e6108df565b905250610673565b6003846020015160026106599190610939565b6106639190610958565b8460400151101561067357600084525b505b825160008054859290829060ff19166001836002811115610698576106986108df565b0217905550602082810151600183015560408301516002830155606083015160038301556080830151600483015560a0830151600583015560c0830151600683015560e083015180516106f19260078501920190610721565b506101009190910151600890910180546001600160a01b0319166001600160a01b03909216919091179055505050565b828054828255906000526020600020908101928215610776579160200282015b8281111561077657825182546001600160a01b0319166001600160a01b03909116178255602090920191600190910190610741565b50610782929150610786565b5090565b5b808211156107825760008155600101610787565b6001600160a01b03811681146107b057600080fd5b50565b80356107be8161079b565b919050565b634e487b7160e01b600052604160045260246000fd5b60008060008060008060c087890312156107f257600080fd5b86356107fd8161079b565b955060208781013595506040880135945060608801359350608088013567ffffffffffffffff8082111561083057600080fd5b818a0191508a601f83011261084457600080fd5b813581811115610856576108566107c3565b8060051b604051601f19603f8301168101818110858211171561087b5761087b6107c3565b60405291825284820192508381018501918d83111561089957600080fd5b938501935b828510156108be576108af856107b3565b8452938501939285019261089e565b8097505050505050506108d360a088016107b3565b90509295509295509295565b634e487b7160e01b600052602160045260246000fd5b634e487b7160e01b600052601160045260246000fd5b6000821982111561091e5761091e6108f5565b500190565b634e487b7160e01b600052603260045260246000fd5b6000816000190483118215151615610953576109536108f5565b500290565b60008261097557634e487b7160e01b600052601260045260246000fd5b500490565b60006020828403121561098c57600080fd5b81516109978161079b565b939250505056fea26469706673582212202a6a07f4a46a3419ccd722f3bd3c5275d244b95fed53f2e2fff91d6756bc342564736f6c634300080f0033a2646970667358221220e79bb1ad94badce369555926fcb6ae4aa46b6ca1ae86b4de2497a3d17c11f49e64736f6c634300080f0033",
  "devdoc": {
    "kind": "dev",
    "methods": {},
    "version": 1
  },
  "userdoc": {
    "kind": "user",
    "methods": {},
    "version": 1
  },
  "storageLayout": {
    "storage": [
      {
        "astId": 3610,
        "contract": "src/VoteFactory.sol:VoteFactory",
        "label": "viewAddr",
        "offset": 0,
        "slot": "0",
        "type": "t_address"
      },
      {
        "astId": 3614,
        "contract": "src/VoteFactory.sol:VoteFactory",
        "label": "getVote",
        "offset": 0,
        "slot": "1",
        "type": "t_mapping(t_uint256,t_address)"
      },
      {
        "astId": 3618,
        "contract": "src/VoteFactory.sol:VoteFactory",
        "label": "isVote",
        "offset": 0,
        "slot": "2",
        "type": "t_mapping(t_address,t_bool)"
      },
      {
        "astId": 3620,
        "contract": "src/VoteFactory.sol:VoteFactory",
        "label": "admin",
        "offset": 0,
        "slot": "3",
        "type": "t_address"
      }
    ],
    "types": {
      "t_address": {
        "encoding": "inplace",
        "label": "address",
        "numberOfBytes": "20"
      },
      "t_bool": {
        "encoding": "inplace",
        "label": "bool",
        "numberOfBytes": "1"
      },
      "t_mapping(t_address,t_bool)": {
        "encoding": "mapping",
        "key": "t_address",
        "label": "mapping(address => bool)",
        "numberOfBytes": "32",
        "value": "t_bool"
      },
      "t_mapping(t_uint256,t_address)": {
        "encoding": "mapping",
        "key": "t_uint256",
        "label": "mapping(uint256 => address)",
        "numberOfBytes": "32",
        "value": "t_address"
      },
      "t_uint256": {
        "encoding": "inplace",
        "label": "uint256",
        "numberOfBytes": "32"
      }
    }
  }
}