{
  "address": "0x9516802877A213fB7D3269041D0f0c10acFaD91C",
  "abi": [
    {
      "inputs": [
        {
          "internalType": "address",
          "name": "viewAddr_",
          "type": "address"
        }
      ],
      "stateMutability": "nonpayable",
      "type": "constructor"
    },
    {
      "inputs": [],
      "name": "admin",
      "outputs": [
        {
          "internalType": "address",
          "name": "",
          "type": "address"
        }
      ],
      "stateMutability": "view",
      "type": "function"
    },
    {
      "inputs": [
        {
          "internalType": "uint256",
          "name": "totalAudience",
          "type": "uint256"
        },
        {
          "internalType": "uint256",
          "name": "rewardPresenter",
          "type": "uint256"
        },
        {
          "internalType": "uint256",
          "name": "rewardAudience",
          "type": "uint256"
        },
        {
          "internalType": "address[]",
          "name": "memberList",
          "type": "address[]"
        },
        {
          "internalType": "address",
          "name": "presenter",
          "type": "address"
        },
        {
          "internalType": "uint256",
          "name": "date",
          "type": "uint256"
        }
      ],
      "name": "createVote",
      "outputs": [],
      "stateMutability": "nonpayable",
      "type": "function"
    },
    {
      "inputs": [
        {
          "internalType": "uint256",
          "name": "",
          "type": "uint256"
        }
      ],
      "name": "getVote",
      "outputs": [
        {
          "internalType": "address",
          "name": "",
          "type": "address"
        }
      ],
      "stateMutability": "view",
      "type": "function"
    },
    {
      "inputs": [
        {
          "internalType": "uint256",
          "name": "date",
          "type": "uint256"
        }
      ],
      "name": "getVoteAddress",
      "outputs": [
        {
          "internalType": "address",
          "name": "",
          "type": "address"
        }
      ],
      "stateMutability": "nonpayable",
      "type": "function"
    },
    {
      "inputs": [
        {
          "internalType": "address",
          "name": "",
          "type": "address"
        }
      ],
      "name": "isVote",
      "outputs": [
        {
          "internalType": "bool",
          "name": "",
          "type": "bool"
        }
      ],
      "stateMutability": "view",
      "type": "function"
    },
    {
      "inputs": [
        {
          "internalType": "address",
          "name": "newViewAddr",
          "type": "address"
        }
      ],
      "name": "setViewAddr",
      "outputs": [],
      "stateMutability": "nonpayable",
      "type": "function"
    }
  ],
  "transactionHash": "0xe8655e2624f620330955426570b36d3d57c1cf66e84d06ba0f424806e1cfa501",
  "args": [
    "0x30e12a2f8C933ba13482BaB0B795524c48E3Aef8"
  ],
  "numDeployments": 1,
  "solcInputHash": "a1d2baa1cd3f0deda43e6d14702f5e3e",
  "bytecode": "0x608060405234801561001057600080fd5b50604051610df3380380610df383398101604081905261002f91610062565b60038054336001600160a01b031991821617909155600080549091166001600160a01b0392909216919091179055610092565b60006020828403121561007457600080fd5b81516001600160a01b038116811461008b57600080fd5b9392505050565b610d52806100a16000396000f3fe608060405234801561001057600080fd5b50600436106100625760003560e01c806329e19468146100675780635a55c1f01461009f5780638d535cd5146100e0578063c4680f1d146100f5578063ea965b891461011e578063f851a44014610131575b600080fd5b61008a6100753660046102f1565b60026020526000908152604090205460ff1681565b60405190151581526020015b60405180910390f35b6100c86100ad366004610313565b6001602052600090815260409020546001600160a01b031681565b6040516001600160a01b039091168152602001610096565b6100f36100ee3660046102f1565b610144565b005b6100c8610103366004610313565b6000908152600160205260409020546001600160a01b031690565b6100f361012c366004610342565b6101b4565b6003546100c8906001600160a01b031681565b6003546001600160a01b031633146101925760405162461bcd60e51b815260206004820152600d60248201526c1050d0d154d4d7d11153925151609a1b604482015260640160405180910390fd5b600080546001600160a01b0319166001600160a01b0392909216919091179055565b600080604051806020016101c7906102c8565b601f1982820381018352601f9091011660408181526020820186905291925060009101604051602081830303815290604052805190602001209050808251602084016000f560005460405163907cc7b160e01b81529194506001600160a01b038086169263907cc7b1926102499216908d908d908d908d908d9060040161043f565b600060405180830381600087803b15801561026357600080fd5b505af1158015610277573d6000803e3d6000fd5b5050506000948552505060016020818152604080862080546001600160a01b039096166001600160a01b0319909616861790559385526002905291909220805460ff19169091179055505050505050565b610863806104ba83390190565b80356001600160a01b03811681146102ec57600080fd5b919050565b60006020828403121561030357600080fd5b61030c826102d5565b9392505050565b60006020828403121561032557600080fd5b5035919050565b634e487b7160e01b600052604160045260246000fd5b60008060008060008060c0878903121561035b57600080fd5b86359550602080880135955060408801359450606088013567ffffffffffffffff8082111561038957600080fd5b818a0191508a601f83011261039d57600080fd5b8135818111156103af576103af61032c565b8060051b604051601f19603f830116810181811085821117156103d4576103d461032c565b60405291825284820192508381018501918d8311156103f257600080fd5b938501935b8285101561041757610408856102d5565b845293850193928501926103f7565b80985050505050505061042c608088016102d5565b915060a087013590509295509295509295565b600060c0820160018060a01b03808a1684526020898186015288604086015287606086015260c0608086015282875180855260e087019150828901945060005b8181101561049d57855185168352948301949183019160010161047f565b5050809450505080851660a0850152505097965050505050505056fe60806040526009805460ff1916905534801561001a57600080fd5b506108398061002a6000396000f3fe608060405234801561001057600080fd5b50600436106100365760003560e01c8063907cc7b11461003b578063df4985fa14610050575b600080fd5b61004e610049366004610664565b610058565b005b61004e610232565b60095460ff16156100b05760405162461bcd60e51b815260206004820152601c60248201527f43616e20626520496e697469616c697a6564206f6e6c79206f6e63650000000060448201526064015b60405180910390fd5b61010960408051610120810190915280600081526020016000815260200160008152602001600081526020016000815260200160008152602001600081526020016060815260200160006001600160a01b031681525090565b60098054610100600160a81b0319166101006001600160a01b038a1602179055600081819052506020810186905260a0810185905260c0810184905260e081018390526001600160a01b038216610100820152426060820181905261017090612a30610794565b6080820152805160008054839290829060ff1916600183600281111561019857610198610768565b0217905550602082810151600183015560408301516002830155606083015160038301556080830151600483015560a0830151600583015560c0830151600683015560e083015180516101f192600785019201906105b8565b506101009190910151600890910180546001600160a01b0319166001600160a01b0390921691909117905550506009805460ff191660011790555050505050565b604080516101208101909152600080549091908290829060ff16600281111561025d5761025d610768565b600281111561026e5761026e610768565b81526020016001820154815260200160028201548152602001600382015481526020016004820154815260200160058201548152602001600682015481526020016007820180548060200260200160405190810160405280929190818152602001828054801561030757602002820191906000526020600020905b81546001600160a01b031681526001909101906020018083116102e9575b5050509183525050600891909101546001600160a01b031660209091015260e0810151519091506000805b8281101561038b57336001600160a01b03168460e00151828151811061035a5761035a6107ac565b60200260200101516001600160a01b031603610379576001915061038b565b610384600182610794565b9050610332565b5080151560000361041257604051600081527f3b0a8ddef325df2bfdfa6b430ae4c8421841cd135bfa8fb5e432f200787520bb9060200160405180910390a160405162461bcd60e51b815260206004820152601b60248201527f6d73672e73656e646572206d7573742062652061756469656e6365000000000060448201526064016100a7565b826080015142106104655760038360200151600261043091906107c2565b61043a91906107e1565b83604001511015610460578260025b9081600281111561045c5761045c610768565b9052505b61050c565b6040830151610475906001610794565b60408085019190915251600181527f3b0a8ddef325df2bfdfa6b430ae4c8421841cd135bfa8fb5e432f200787520bb9060200160405180910390a16003836020015160026104c391906107c2565b6104cd91906107e1565b8360400151106104df57826001610449565b6003836020015160026104f291906107c2565b6104fc91906107e1565b8360400151101561050c57600083525b825160008054859290829060ff1916600183600281111561052f5761052f610768565b0217905550602082810151600183015560408301516002830155606083015160038301556080830151600483015560a0830151600583015560c0830151600683015560e0830151805161058892600785019201906105b8565b506101009190910151600890910180546001600160a01b0319166001600160a01b03909216919091179055505050565b82805482825590600052602060002090810192821561060d579160200282015b8281111561060d57825182546001600160a01b0319166001600160a01b039091161782556020909201916001909101906105d8565b5061061992915061061d565b5090565b5b80821115610619576000815560010161061e565b80356001600160a01b038116811461064957600080fd5b919050565b634e487b7160e01b600052604160045260246000fd5b60008060008060008060c0878903121561067d57600080fd5b61068687610632565b955060208088013595506040880135945060608801359350608088013567ffffffffffffffff808211156106b957600080fd5b818a0191508a601f8301126106cd57600080fd5b8135818111156106df576106df61064e565b8060051b604051601f19603f830116810181811085821117156107045761070461064e565b60405291825284820192508381018501918d83111561072257600080fd5b938501935b828510156107475761073885610632565b84529385019392850192610727565b80975050505050505061075c60a08801610632565b90509295509295509295565b634e487b7160e01b600052602160045260246000fd5b634e487b7160e01b600052601160045260246000fd5b600082198211156107a7576107a761077e565b500190565b634e487b7160e01b600052603260045260246000fd5b60008160001904831182151516156107dc576107dc61077e565b500290565b6000826107fe57634e487b7160e01b600052601260045260246000fd5b50049056fea2646970667358221220ece28a6180a92ce21afec1e3fc3b4d043c68a55c5d5ac612842ce28f337b7c0a64736f6c634300080f0033a2646970667358221220551fd02e798da03e6bcb6be119bfec6ae0eec2a19e3567335141965fc974ab4c64736f6c634300080f0033",
  "devdoc": {
    "kind": "dev",
    "methods": {},
    "version": 1
  },
  "userdoc": {
    "kind": "user",
    "methods": {},
    "version": 1
  },
  "storageLayout": {
    "storage": [
      {
        "astId": 313,
        "contract": "src/VoteFactory.sol:VoteFactory",
        "label": "viewAddr",
        "offset": 0,
        "slot": "0",
        "type": "t_address"
      },
      {
        "astId": 317,
        "contract": "src/VoteFactory.sol:VoteFactory",
        "label": "getVote",
        "offset": 0,
        "slot": "1",
        "type": "t_mapping(t_uint256,t_address)"
      },
      {
        "astId": 321,
        "contract": "src/VoteFactory.sol:VoteFactory",
        "label": "isVote",
        "offset": 0,
        "slot": "2",
        "type": "t_mapping(t_address,t_bool)"
      },
      {
        "astId": 323,
        "contract": "src/VoteFactory.sol:VoteFactory",
        "label": "admin",
        "offset": 0,
        "slot": "3",
        "type": "t_address"
      }
    ],
    "types": {
      "t_address": {
        "encoding": "inplace",
        "label": "address",
        "numberOfBytes": "20"
      },
      "t_bool": {
        "encoding": "inplace",
        "label": "bool",
        "numberOfBytes": "1"
      },
      "t_mapping(t_address,t_bool)": {
        "encoding": "mapping",
        "key": "t_address",
        "label": "mapping(address => bool)",
        "numberOfBytes": "32",
        "value": "t_bool"
      },
      "t_mapping(t_uint256,t_address)": {
        "encoding": "mapping",
        "key": "t_uint256",
        "label": "mapping(uint256 => address)",
        "numberOfBytes": "32",
        "value": "t_address"
      },
      "t_uint256": {
        "encoding": "inplace",
        "label": "uint256",
        "numberOfBytes": "32"
      }
    }
  }
}